:100000000C9429040C9470040C9470040C947004E7
:100010000C9470040C9470040C9470040C94700490
:100020000C9470040C9470040C9407170C944316F1
:100030000C9400220C9470040C9470040C947004C2
:100040000C9470040C9470040C9470040C94700460
:100050000C9470040C94BF210C9470040C947004E4
:100060000C9470040C9470040C9470040C94700440
:100070000C9470040C9470040C9470040C94700430
:100080000C9470040C9470040C9470040C94700420
:100090000C9470040C9470040C9470040C94700410
:1000A0000C9470040C9470040C947004BE0ABE0A84
:1000B000F10AF10A7A0BAF0CAF0CAF0C980B0C0CD9
:1000C0001D0C1D0C5F1173117A1178127812B21188
:1000D000C311D6111D1222127812781278122A1228
:1000E00049147014251670142516BC14DF14251637
:1000F000E015F015C918C918DC18DC18D218DC187E
:10010000DC18DC18C918C918D718DC18DC18D7187F
:1001100000000000000000000000000000000000DF
:1001200000000000000000000000000000000000CF
:10013000000000007E0F00D4FFFFFFC70000007822
:1001400000000000000000002A2B28000000000032
:100150000000000000000000000000290000000076
:100160002C1E3420212224342627252E362D3738E4
:10017000271E1F202122232425263333362E3738ED
:100180001F0405060708090A0B0C0D0E0F101112AB
:10019000131415161718191A1B1C1D2F3130232D77
:1001A000350405060708090A0B0C0D0E0F10111275
:1001B000131415161718191A1B1C1D2F3130354C26
:1001C000FD377A585A000004E6D6B44602002101F1
:1001D00016000000742FE5A3E0078E025A5D003D73
:1001E0008889C65436C3174FE4E6272ED747C27214
:1001F0009DE9CDA9B9B1EC89E33CA73BA820824495
:10020000BAF5AC7535F6CB6A4A99FDF2446C869A1C
:10021000A9CADA84014C67F535C93655D0371D5661
:10022000EF3B90A17638FA817B84E7FC21A0A3C143
:100230005BE3F07C9C0469A78B08744E9BD354B598
:10024000C17DF1286FDC9C986585DF732797D5BF4A
:10025000508532CF7E7025CEE530A5F8BA8C893C2A
:10026000BC9BA2C69A588E4404BBC3718E5104D85D
:100270004F469103165A4B3FD3C75F9F8171A4101D
:100280003DB23DF990FBD9AC524E56BFA902B250D7
:1002900056580E91BC0B1C506977726513955EA77A
:1002A0009F0D38F5133F973D9184DAAC4B2EB6077E
:1002B000601B16E58C35A7D4479096098F099B479C
:1002C0004B0AF8F13EC1B64C5D8B6A9E3CABDC2418
:1002D0006DAECFCBCE009AF5DAE820E9F19C1FE9AC
:1002E000DFF96C3698D49505364D09920BE5BB3E87
:1002F000BDCD90B4467D950B65C4842B96F488D80B
:10030000F6FA8E1A6049585515237D5A3C773254B7
:10031000E858ECA07F6065A071A27BA775C870B695
:10032000D5B4F4E2817D1DB45C19C0453F4ADC08B8
:100330004734E50AA93DA3A4B2493D1D41B49A083A
:100340001352E19FD339173308FC73944CE5808036
:10035000E18501F4C2D86037940E1E3C86518216A6
:10036000AC863A24573B9CD424E1CB5FE32B11901D
:100370003EE78CF762F25E37FCDDB3EE3644118562
:1003800035480B434BEB0611A3F80ABF7AD7C91EB9
:10039000262025C6016908CC21A151E546D448365E
:1003A00007CD0AADB72957C534BD6AF2AE66960AC5
:1003B000BAD1469D607634CBF56F13BFA014E732F7
:1003C000C558989D070D65A564446DA79A7291DC88
:1003D0004B06EC6F461B517244B34575738DCB6A67
:1003E00051C845CE6CC90598E3F7706A7523BA7891
:1003F0004DBBB2ACE04405442A9BD9A6199360EEEC
:10040000D0706498441D08A8F43359BA30F948797B
:100410001AC5FA2073AB0CA1A978D070E501669DCE
:10042000DF84AC323770088F4F14BB381D46EFBFE6
:10043000A3B6DC27470C5143A10000009BF348FB07
:10044000009347740001F6048F0F00004969784B50
:10045000B1C467FB020000000004595A050109807D
:10046000A101850319012AB700150126B7009501DE
:1004700075108100C0050C0901A101850419012A2C
:10048000A002150126A002950175108100C005018A
:100490000906A1018506050719E029E715002501D0
:1004A0009508750181020507190029EF150025013E
:1004B00095F0750181020508190129059505750159
:1004C0009102950175039101C00660FF0961A101C8
:1004D0000962150026FF0095207508810209631541
:1004E0000026FF00952075089102C005010906A1AC
:1004F00001050719E029E715002501950875018117
:10050000029501750881010507190029FF150026CC
:10051000FF00950675088100050819012905950554
:1005200075019102950175039101C009025B0003F9
:100530000100A0FA090400000103010100092111D2
:100540000100012240000705810308000A09040197
:10055000000203000000092111010001222200070E
:10056000058203200001070503032000010904029E
:10057000000103000000092111010001226D0007A4
:1005800005840320000A120100020000000800F1A7
:1005900079AD0200010203011C03760069006100CD
:1005A0006C003A00660036003400630032006200DE
:1005B0003300630000000C03530061006E006E0006
:1005C00079000000120346006C006F006F006F009E
:1005D0006B006100790000000403090429003A005F
:1005E0003B003C003D003E003F0040004100420017
:1005F00043004400450068004B000000000000007C
:1006000000000000000000000000000000000000EA
:10061000000000000000000035001E001F00200048
:1006200021002200230024002500260027002D00A1
:100630002E002A0064002B0014001A000800150088
:1006400017001C0018000C00120013002F003000CF
:1006500028004A00E00004001600070009000A0014
:100660000B000D000E000F003300340032000000BC
:100670004D00E1001D001B000600190005001100DF
:100680001000360037003800E500000052004E0030
:10069000E0000000E20000002C00015100002C00EE
:1006A0000000E60000000000500051004F00A600CE
:1006B000680069006A006B006C006D006E006F00DE
:1006C00070007100720073004600A9000000000075
:1006D000000000000000000000000000000000001A
:1006E0000000000000000000000001003A003B0094
:1006F0003C003D003E003F004000410042004300FE
:10070000440045000100010001000100010001005A
:10071000010001004A004E004B004D0001000100A5
:1007200001000100C05CE3000100010001000100C4
:1007300001005000510052004F0001000100AE00C6
:100740000000A800010001000100010001000100FB
:100750000100010001000100010001000000AE00E5
:10076000AA000100000001000000010001000000DB
:1007700001000000010000000000AC00AD00AB0073
:100780000100010001000100010001000100010061
:100790000100010001000100010001000100000052
:1007A0000000000000000000000000000000000049
:1007B0000000000000000000000000000100010037
:1007C0000100010001000100010001000100010021
:1007D0000100010001000100010001000100010011
:1007E0000100010001000100010001000100010001
:1007F00001000100010001000100010001000100F1
:1008000001000100010001000100010001000100E0
:1008100001000000010001000100010001000100D1
:1008200001000100010001000100010001000000C1
:1008300001000100010000000100000001000100B2
:1008400000000100000001000000000001000100A4
:10085000010011241FBECFEFDAE0DEBFCDBF04B62A
:1008600003FE27C08091810390918203A0918303AE
:10087000B09184038730904BA740B04BD1F41092D5
:10088000810310928203109283031092840314BE9A
:1008900084B7877F84BF0FB6F894A89580916000D5
:1008A000886180936000109260000FBEE0E0F8E382
:1008B000099511E0A0E0B1E0EEE1F0E502C005909D
:1008C0000D92AC36B107D9F723E0ACE6B1E001C038
:1008D0001D92A138B207E1F70E94730D0C940D2808
:1008E0000C9400001F93CF93DF9300D000D01F9291
:1008F000CDB7DEB7FC0186819781009709F5CF015E
:1009000025E0DE01119601900D922A95E1F7FC0198
:10091000228189819A81222359F0662349F00E941D
:100920007118182F682F89819A810E94E51A03C0D7
:100930000E94B51A182F69817A81812F0E947B2528
:100940000F900F900F900F900F90DF91CF911F910C
:100950000895AF92BF92CF92DF92EF92FF920F93E2
:100960001F93CF93DF93EC018AE0A82E28812223E6
:1009700009F497C0213009F041C08981813039F4F0
:100980008E010E5F1F4F8A810E947A1C08C0823040
:1009900041F48E010E5F1F4F8A810E94071CE801FF
:1009A0007EC0833039F48E010E5F1F4F8A810E9412
:1009B000DD1BF5CF843011F0219671C02A8122967B
:1009C00080E090E030E0205331092A30310558F4BE
:1009D000A89EA001A99E500D1124C901840F951F46
:1009E00021962881EFCF009709F459C0EFE9FFE085
:1009F0003197F1F700C000000197F5CFE22FF0E04A
:100A0000E05CFE4FB490822F86958695869590E0A7
:100A1000FC01E05DFE4FE4902770F12C022E02C035
:100A2000F594E7940A94E2F7F1E0EF22FF24FC0149
:100A3000E05EFE4FC490D12C022E02C0D594C79424
:100A40000A94E2F731E0C322DD24FC01E05FFE4FAF
:100A5000049110E002C0159507952A95E2F7017000
:100A60001127E114F10419F081EE0E94071CC11452
:100A7000D10419F086EE0E94071C8B2D0E947A1C6F
:100A8000CD2819F086EE0E94DD1BEF2819F081EECB
:100A90000E94DD1B012B19F08CE20E947A1C21962A
:100AA00065CFDF91CF911F910F91FF90EF90DF9075
:100AB000CF90BF90AF9008952F923F924F925F9248
:100AC0006F927F928F929F92AF92BF92CF92DF925E
:100AD000EF92FF920F931F93CF93DF93CDB7DEB7C3
:100AE0006A970FB6F894DEBF0FBECDBF498B5A8B05
:100AF0006B8B7C8B8D8B6111109268028E01075F6E
:100B00001F4F88E0F80111928A95E9F785E0FE0110
:100B10007196D80101900D928A95E1F780917C033E
:100B200082FD26C00E94F42120916402309165026A
:100B3000821B930B8838934140F08091660282FBC0
:100B4000992790F981E0892701C080E080FF03C0E8
:100B500082E00E9463200E94F42120916A02309179
:100B60006B02821B930B8838934110F00E94F41F94
:100B700099858A852C853D85232B31F08F3F31F473
:100B800081E09F3F19F403C081E001C080E080FD57
:100B9000CAC161E0C8010E9472046C0187EFC816E7
:100BA0008CE5D80639F48B858823B9F081E08093F1
:100BB0000D01B9C198EFC9169CE5D90631F48B85B2
:100BC000882359F00E94CF23AEC1E9EFCE16ECE5A1
:100BD000DE0619F48B85811111C009E213E0712C36
:100BE000A12CB12C88248394912C55245394CE01AC
:100BF00001969F8B8E8BF7E04F2E49C080910D019F
:100C00008823A1F2DFCFC616D70609F097019F5FB0
:100C10007901292F30E0F901EE0FFF1FE40FF51FD6
:100C2000608171816115710571F7FFEFEF16FF06A5
:100C300009F42DC1F8016481611131C020910D01C9
:100C4000822F81706B84F80135812681662009F43A
:100C5000C6C0882309F4C3C0332321F1940102C024
:100C6000220F331F9A95E2F721503109F80186814E
:100C700090E02817390759F17628FFEFAF1ABF0A1D
:100C8000095F1F4F28E0A216B10409F402C1F80160
:100C900040815181EE24EA94FE2C90E0BACF20E00E
:100CA00030E0CECFA40101C0440FEA94EAF7242B30
:100CB00026832091C5023091C6022233310570F699
:100CC00022E330E03093C6022093C502C7CF809163
:100CD0006B0390916C03009729F00E94E521C39764
:100CE00008F01EC180916903F0916A03F88FE0E07B
:100CF000F0E0288D821709F460C0282F30E0F90158
:100D0000EE0FFF1FEF59FC4F20803180429CF00115
:100D1000439CF00D1124E75DFC4FF080E18050E032
:100D200090E040E0EF2DFE2DE40FF11DE40FF11DEA
:100D3000A081B1811097D1F0F801F081F98FF8010D
:100D4000F181FA8F90E0E98DFA8DE90FF11DE90F3D
:100D5000F11D608171816115710531F0A617B7072A
:100D600009F451E09F5FEFCF4F5FDCCF5523F9F0DF
:100D70009417C8F0429CF001439CF00D1124E75DEC
:100D8000FC4F3097B1F054820E171F0709F474CF4F
:100D90009091690389130DC0C90101968370992749
:100DA0008093690306C00115110509F0B9C0E0E0A0
:100DB000F0E0C901019683709CCF0E171F0709F45C
:100DC0005BCF90E0FC01EE0FFF1FEF59FC4FB182AB
:100DD000A08201968370992780936A034DCF3111C9
:100DE00012C0A40102C0440F551F9A95E2F741506A
:100DF000510930E042175307E9F56623E1F1C501D7
:100E00000E94312337C0822F90E09C01215031098C
:100E1000282339230E2C02C0959587950A94E2F772
:100E2000232B31F580FF24C0F80182819381892B27
:100E3000D9F088E0EE89FF8911928A95E9F78EEF63
:100E400089838A830E94F4218160582F9D838C833B
:100E5000F801828193818F83988729813A814B8120
:100E60006D817E810E94461BF801158281E003C0DE
:100E7000817001C080E0940101C0220FEA94EAF77A
:100E80002095F801968129232683682EF5CE612CC2
:100E9000F3CE8B85882381F1772071F10E94F421B4
:100EA00090936C0380936B038091C802883008F0A4
:100EB00044C091E0980F9093C80298E0FE013996E3
:100EC000DE01119601900D929A95E1F7ECE08E9F6C
:100ED000C001112487539D4F28E0FE013196DC01AB
:100EE00001900D922A95E1F72FEF3FEFFC0131873A
:100EF0002087D386C28621C09091690380916A03BE
:100F0000981719F00E94DD2308C00E945F231092F9
:100F10006C0310926B030E94BE23772021F00DC05A
:100F2000F8015482A9CE29853A854B855C856D856B
:100F30007E858F8598890E94461B6A960FB6F89425
:100F4000DEBF0FBECDBFDF91CF911F910F91FF90FC
:100F5000EF90DF90CF90BF90AF909F908F907F9059
:100F60006F905F904F903F902F9008958F929F9237
:100F7000AF92BF92CF92DF92EF92FF920F931F93A7
:100F8000CF93DF9300D000D0CDB7DEB7FC018081D6
:100F9000918123813481232B31F09F3F31F491E003
:100FA0008F3F19F403C091E001C090E090FD8AC525
:100FB0007F0161E0CF010E9472048C01F701828100
:100FC000882309F47FC0980122513F452031310523
:100FD00008F0E9C48FEF93E00E94422781117BC0A3
:100FE00002519DEEC92E92E0D92E002379F0C11452
:100FF000F4E0DF0609F46FC0C6010E9442278111A8
:1010000001C001502FEFC21AD20AEFCF19821A8203
:101010001B821C82AA24AA9486010F5F1F4FC6015F
:101020000E94422789831A82882309F454C08130A0
:1010300009F043C0460182E0880E911CC8010E945D
:1010400042278A83882309F446C09FEF980F933084
:1010500050F40E5F1F4FC4010E9442278B83811101
:101060002CC06801D9CF843011F08401FACFC401BB
:101070000E944227B82E86010C5F1F4FC6010396BF
:101080000E944227BB2039F1882329F1282F30E024
:1010900021503109A29EA001A39E500D11248B2D39
:1010A00090E00197840F951F0197D8F2EFE9FFE0D8
:1010B0003197F1F700C00000F7CFCE0101960E94F2
:1010C000A904CFCF0031FFE51F07B9F481E00E94EA
:1010D000161B0E94561380916602877009F4F2C4B1
:1010E000F7018281882309F4EDC480917C0382FD9D
:1010F000E9C482E00E946320E5C401312FE51207B4
:10110000A9F482E0E4CF0D3B9CE5190709F45AC429
:1011100008F490C40F3B9CE5190709F49EC408F439
:10112000B3C4003CFCE51F0709F45CC4033FFCE5C5
:101130001F0799F406E221EE40EE63EF7CE509C05B
:10114000073DFCE51F0711F506E221EE41EE67EDD4
:101150007CE5C7010E94BE22BECF043F2CE51207EA
:1011600008F046C1083D9CE5190731F407E225EE79
:1011700045EE68ED7CE5EDCF093DECE51E0701F796
:1011800008E221E045EE69ED7CE5E3CF882309F430
:1011900064C110926F0303302DE5120758F40A3F23
:1011A0008CE5180760F4C80182509C45449708F00C
:1011B0003EC105C001369DE5190709F038C10E94FE
:1011C0006E1F90937C0380937B030031ECE51E0738
:1011D00009F4CAC008F041C008302CE5120709F430
:1011E000A4C0F0F404309CE5190709F48CC068F43D
:1011F0000230FCE51F0709F482C003301C4509F0EA
:10120000E7C080917B038260E1C006308CE518075F
:1012100009F483C008F085C080917B038860D6C044
:101220000C30ECE51E0709F490C068F40A302CE598
:10123000120709F47EC008F084C00E94311B80911F
:101240007B038068C3C00E309CE5190709F481C098
:1012500008F086C080917B0394C00C3FFCE51F071B
:1012600009F47BC038F504318CE5180709F49AC0FD
:1012700058F40231ECE51E0709F47AC008F07EC08C
:1012800080917B038F7BA2C00A3F2CE51207F1F10E
:1012900008F03FC005311C4509F09AC080917B03DE
:1012A00082FB222720F991E0922790FB82F990FBA4
:1012B00083F98CC00115EDE51E0709F467C050F4F1
:1012C00080917C030E3F2CE51207C1F108F05BC052
:1012D0008D7F65C00230EDE51E0709F471C008F48A
:1012E0006DC001361D4509F073C080917B0384FBFE
:1012F000222720F991E0922790FB84F967C0809122
:101300007B03816063C080917B0316C080917C0366
:1013100016C080917C03826042C080917B03806113
:1013200055C080917B03806251C080917B038064B3
:101330004DC080917B038860846048C0826081607A
:101340002EC080917B038E7F41C080917B038D7F77
:101350003DC080917B03877F39C080917C0314C09E
:1013600080917B038F7E32C080917B038F7D2EC066
:101370000E94311B80917B038F7728C080917B0373
:10138000877F8B7F23C08D7F8E7F09C080917C03F8
:10139000982F909591708E7F892B90FB81F9809387
:1013A0007C0316C00E94311B80917B0387FB2227A0
:1013B00020F991E0922790FB87F908C061E001C015
:1013C00060E08EE090E00E94502702C080937B0393
:1013D00060917B0310917C0384E090E00E94502791
:1013E000612F82E290E00E9450270E94311B73CE51
:1013F000053F2CE5120731F406E221EE42EE65EFDF
:101400007CE5A7CE053F9CE5190730F407E225EE01
:1014100044EE64EF7CE59DCE063FECE51E0709F047
:10142000B5CE07E225EE46EE66EF7CE592CE0631BC
:10143000FCE51F0711F5809169028A7A91E009F4B1
:1014400090E090936E01882311F065E301C069E29A
:1014500089EF91E00E9451220DC006311C45F1F543
:1014600080916E01882309F42BC365E389EF91E035
:101470000E9429220E9406202ECE0A358DE51807EB
:1014800041F150F40115ECE51E07A9F00E3D1C4595
:1014900029F50E948A1F1FCE0B352DE51207D9F0C2
:1014A0000C351D45D9F480917C0382FB882780F997
:1014B00091E0892711C00E94311B9FEFE4E3FCE01B
:1014C0009150E040F040E1F700C000000E949B21F5
:1014D00002CE81E001C080E00E948020F701868179
:1014E00097810097B9F4F7018281008111818823E7
:1014F00049F0C8010E947118D82E682FC8010E94B7
:10150000E51A04C0C8010E94B51AD82EB8018D2D65
:101510000E947B250E94E51DC82E192FF701D2805D
:10152000058102950F70809166028770B9F0DD2009
:10153000A9F0892F807F803421F080E28C0D8830E3
:1015400068F080917C0382FD09C082E00E946320E4
:10155000809166028770BB24B3948111B12CA12EB7
:10156000A2948FE0A8228A2D90E08C30910508F09B
:10157000F6C1FC01EA5AFF4F0C94D227812F807FDD
:101580001F70882311F01295107FDD20B9F0112310
:1015900009F4D1C180E28C0D883010F0C11006C072
:1015A00090916902192B1093690205C0909168020D
:1015B000192B109368020E940620BDC18C2D0E9439
:1015C000DD1B112309F4CBC180E28C0D883080F142
:1015D000CC2071F110959091680219231093680244
:1015E0002AC0812F807F1F70803211F01295107FEA
:1015F000CC2029F0F1E0CF1609F45AC063C08091E5
:101600007C0382FF1BC0DD2069F0112339F090912B
:101610006902192B109369020E94062080E00E9443
:10162000071C9DC180E00E94DD1B112309F497C1B6
:10163000812F0E94FF1F0E94062091C1DD2021F111
:101640000023F1F0013079F480916C02182B181707
:1016500009F485C10E94F42190936B0280936A0281
:1016600010936C027CC1053059F40E94F41F8091E4
:101670006302181310936302812F0E94D31B6FC162
:1016800080916C02812BF9CF002349F0013069F47D
:1016900080916902812309F462C10E94B3200E94F3
:1016A000F41F812F0E94CC1B5AC10530C1F757C1CE
:1016B000DD2021F0063008F052C1DECF053008F001
:1016C0004EC1EFCFDD2049F00023B1F2F701858153
:1016D00080FF31C18F708583CFCF002311F3F9E3F1
:1016E000CF123AC12FEF87EE93E021508040904017
:1016F000E1F730C1812F86958695837019F081308E
:1017000061F02DC1DD2021F08C2D912F937002C04E
:1017100080E090E00E949C2228C1DD2021F08C2DE9
:10172000912F937002C080E090E00E9486221DC13C
:10173000812F8370A9F5D11016C14C2D4295469585
:101740004770440F440F8C2D8F7090E09C01042E45
:1017500001C0220F0A94EAF7C4FE08C08FE090E0AF
:1017600001C0880F4A95EAF7809501C080E0169580
:1017700016951370123069F088F490916D02113053
:1017800019F0822B892302C0922B892B0E942D1BDA
:10179000EAC0822B90916D028927F8CF822BF6CF79
:1017A000DD2019F0812F817001C08695882309F40E
:1017B000DAC04C2D429546954770440F440F8C2D4E
:1017C0008F7090E09C01042E01C0220F0A94EAF76A
:1017D000C4FE08C08FE090E001C0880F4A95EAF788
:1017E000809501C080E0169516951370123059F05F
:1017F00078F49091CE01113019F0822B892309C021
:10180000922B892B06C0822B9091CE01892701C093
:10181000822B0E94121BA7C01F70DD2039F0812F80
:101820000E94221B8C2D0E94D31B9DC08C2D0E94D8
:10183000CC1B812F0E94161B96C0E2EFCE1679F1C9
:10184000EC1538F0F0EFCF1659F021EFC21601F188
:101850006DC083EFC81651F194EFC916A9F066C0A8
:10186000DD2071F0053008F07AC01F7181E090E052
:1018700001C0880F1A95EAF79091CE01892720C000
:10188000063008F06CC0F1CF80917C0382FF1BC052
:10189000DD2039F0812F8F710E94221B60C0DD2076
:1018A000C9F3812F8F710E94161B59C0DD2039F0BA
:1018B0001F7181E001C0880F1A95EAF701C080E02E
:1018C0000E94121B4CC0DD20D1F0809163020E9467
:1018D000FF1F809166028770843039F40E945C207B
:1018E000812F8F710E94161B5CC0053008F059C013
:1018F0001F71812F0E94221B63E0812F10C09091E5
:10190000690280916302892B80936902053050F04F
:101910000E945C200E94B32064E0812F8F710E949E
:101920009D203FC081E00E9463203BC0DD2029F064
:10193000002309F4AFCF8C2D72CE002309F4B1CF70
:10194000E9E3CE1209C0FFEF27EE83E0F15020401B
:101950008040E1F700C000008C2D0E94DD1B88EF65
:101960008A0D843010F40E94B222BB20A9F080912D
:10197000660280FD11C0F7011282859585958595D7
:101980000E94221BC7010E94B607809166028595BE
:10199000859585950E94161B60E0C7010E94720420
:1019A00091C0B12CE0CF00312FE5120711F481E096
:1019B00006C001319FE5190709F0A5CB82E00E941E
:1019C000221B87CB80918003982F969596959695AC
:1019D00049F1915E990F990F990F8770892B809328
:1019E000800314C090918003892F869586958695F3
:1019F0008F5F8F719770863008F05FC0880F880FF7
:101A0000880F892B8093800380918003887F91E0E9
:101A100009F490E08091800390FB80F9809380032B
:101A20000E94E026809180038695869586950E9487
:101A30002D2651CB0B3BFCE51F0711F485E006C0BA
:101A40000C3B2CE5120709F071CB80E00E94E526E3
:101A5000809180030E94E0263ECB8091800380FF2E
:101A600007C08E7F809380030E94E02680E0DFCF56
:101A7000816080938003813021F487708860809337
:101A8000800380918003CCCF8091800386958695DA
:101A90008695282F30E0253031055CF48F5F982F34
:101AA000990F990F990F809180038770892B8093EC
:101AB0008003809180038160B1CF90938003A4CF95
:101AC00069E2D4CC0F900F900F900F90DF91CF91DF
:101AD0001F910F91FF90EF90DF90CF90BF90AF904C
:101AE0009F908F900895CF93DF93CDB7DEB7E697A1
:101AF0000FB6F894DEBF0FBECDBF84B7877F84BF1B
:101B00000FB6F894A895809160008861809360007A
:101B1000109260000FBE90E080E80FB6F8948093BA
:101B20006100909361000FBE85B7806885BF85B75F
:101B3000806885BF88E99CE190936D0180936C017A
:101B40000E948E250E9487160E94A6168091E200B0
:101B500084608093E20078948091CD018823A1F085
:101B60001091E9001F709091EC00892F817090FD19
:101B700080E8182B1092E9008091E80083FD0E9414
:101B800061131F701093E90082E084BD93E095BD5E
:101B90009AEF97BD80936E000E941426811102C0B7
:101BA0000E94052606E111E0D8018D918D018F3F3D
:101BB00011F00E94DD1CB1E00D311B07A9F70DE10A
:101BC00011E0F80181918F018F3F11F00E94DD1C1F
:101BD000F1E00C321F07A9F78EE0E1E9F1E0DF0147
:101BE000282F1D922A95E9F7EFE6F1E0DF011D921B
:101BF0008A95E9F70E947F1F811102C00E948A1F07
:101C000082E090E00E94422780937E010E946E1F36
:101C100090937C0380937B030E94F41CEFE3FCE928
:101C20003197F1F700C000000E94F41C80919101EF
:101C300080FF08C06FEF7FEF80E090E00E946E278A
:101C40000E949B2183E090E00E9442270E942D1B6E
:101C50003E9A469882E88093900089E180939100B3
:101C60008FEF9FEF90939700809396000E94FE263F
:101C70000E94FE2680E091E09093730380937203AC
:101C80008E010F5F1F4F4E01F1E28F0E911C9E01DE
:101C9000215F3F4F3EAB2DAB8091CD01853009F0E8
:101CA0004DC060E1E62E72E1F72E8091CD018530C6
:101CB00009F03EC08091CD01843039F180E00E946E
:101CC0002D261092760388E190E0A0E40FB6F894F8
:101CD000A895809360000FBEA093600083B7817FBA
:101CE000846083BF83B7816083BF7894889583B70E
:101CF0008E7F83BF0FB6F894A895809160008861AD
:101D000080936000109260000FBE8091C301882311
:101D100009F4CBCF0E94F41CE1E9F1E081919191AB
:101D2000892B09F0E9C3B1E0EF39FB07B9F7BDCF63
:101D30000E94311B0E94FE260E94B2220E94F41CC7
:101D4000882359F08FB7F894409177035091780326
:101D50006091790370917A038FBF51E9A52E51E00C
:101D6000B52EEFE7F1E0D501E12CF12C6E2D2D9190
:101D70003D918191919182279327009779F170E0AD
:101D8000CC24C394D12CAC014C215D21452B09F10D
:101D90007BA76CA72C213D2181E0232B09F480E057
:101DA0008DA70E94F4218160782F9FA78EA74BA555
:101DB0005CA56DA58FA50E945C05F701EE0FFF1FC6
:101DC000E158FE4F80819181C826D926D182C082F8
:101DD0001CC07F5FCC0CDD1C7F30A9F62FEFE21A10
:101DE000F20A37E0E316F10409F68FEF88AB89AB0E
:101DF0001AAA0E94F4218160782F9CAB8BAB48A972
:101E000059A96AA98CA90E945C050E94B2229091EE
:101E10007D01891721F00E94B22280937D0180917B
:101E2000CD01843009F038CF83E08093E9008091C0
:101E3000E80082FF31CF8091E80085FF23C00E9437
:101E4000DE1781111DC0A0E2EA2EF12CCE01019611
:101E50006C0109C08091F100D6018D936D01B1E054
:101E6000EB1AF10869F08091E80085FDF3CF8091CD
:101E7000E8008B778093E8000E94DE17882399F3AF
:101E800091E001C090E08091E8008B778093E800BA
:101E9000992309F401CFE090C302F090C402898134
:101EA000E114F10461F08E3F09F022C38A8183308E
:101EB00008F4F9C18550833008F01AC3F4C18B309F
:101EC00009F4DBC150F5853009F484C0B0F48230E8
:101ED00009F43FC030F4813009F008C31A8289E068
:101EE000AAC2833009F465C0843009F0FFC24C8176
:101EF0006B818A810E944D256BC0873009F478C0C0
:101F000008F473C0883009F484C0893009F0EEC247
:101F1000809180030E94E026EBC2803109F4EFC07B
:101F200060F48D3009F48EC008F48AC08E3009F454
:101F30008DC08F3009F4B5C0D9C2823109F4E4C034
:101F400008F4E0C0833109F409C18E3F09F4ABC144
:101F5000CDC28A81823009F4E5C2833089F08130B4
:101F600009F0C4C22FB7F894809177039091780359
:101F7000A0917903B0917A032FBFBB83AC8328C0B3
:101F80008091C1029091C202892B09F4B1C2FE0175
:101F90003196D5018C9111969C91B2E0AB0EB11C9B
:101FA0009283838332962DA93EA92E173F0789F786
:101FB0009FC28A81823009F099C26B817C818D81B8
:101FC0009E810E94D82786E290E00E94502790C20E
:101FD0009D83AFC22D813E813227232732274C813A
:101FE0006B818A810E949C2483C20E94D22480C279
:101FF0008A81893009F07CC28B8135E0839FC001E2
:1020000011246FEF70E00E949C27862F0E94E52626
:102010006FC28A81893029F08A3009F069C21B8237
:1020200067C280918003869586958695AFEF8A9FDB
:10203000C001112465E070E00E949C276B8358C2A8
:1020400080E115C281E08A8383E1F5C1EA80FB80EB
:10205000FE24EF24FE24AC80B12CBDE1AB16B1040C
:1020600008F046C26801C70183519D4F9601201BAD
:10207000310B2A153B0508F03BC2E3E1EE16E1E027
:10208000FE0630F40E944227D60114968C9302C0BB
:10209000F6011482FFEFEF1AFF0A2FEFC21AD20ADD
:1020A000E2CF8091C1029091C202892B09F420C233
:1020B000EA80FB80FE24EF24FE24CC80D12C3DE17D
:1020C000C316D10408F014C25801C70183519D4FB3
:1020D0009501201B310B2C153D0508F009C2A3E129
:1020E000EA16A1E0FA0620F4F50164810E94502767
:1020F000FFEFEF1AFF0A2FEFA21AB20AE6CF0E94F3
:102100008C24F6C183E0B3C1EA80FB80FE24EF2477
:10211000FE24AC80B12C3DE1A316B10408F0E8C167
:102120006801C70187969601201B310B2A153B05D4
:1021300008F0DEC1A6E7EA16A2E0FA0628F40E943B
:102140004227F601848303C0D60114961C92BFEF88
:10215000EB1AFB0AEFEFCE1ADE0AE3CFEA80FB8030
:10216000FE24EF24FE24AC80B12CFDE1AF16B104B7
:1021700008F0BEC1270127E2420E511C36E7E316E4
:1021800032E0F30608F0B4C186E792E08E199F09A9
:102190008A159B0508F4ACC18091C1029091C202DE
:1021A000892B11F0680160C0E0FE0FC0C701869660
:1021B0000E94422790E0982F88272D81822B81153D
:1021C0009C4531F48FEF8D8303C0C12CD12C03C00B
:1021D000CC24C394D12CC5018E0D9F1D350180FFE9
:1021E0001BC0B1E06B1A710865E0262E312C2C0E55
:1021F0003D1E260C371CC2018A0D9B1D0E944227E2
:10220000F101208130E0322F2227282B21153C4577
:1022100019F48FEFD1018C93F801EC0DFD1D2FEF18
:10222000CF01801B910B8615970508F0BBCF8481E9
:1022300090E0982F88273581832B81159C4511F4D8
:10224000248325833296ECCFE6E7EE16E2E0FE0625
:1022500028F4D60114966C910E945027BFEFEB1A18
:10226000FB0AEFEFCE1ADE0AC70187969601201B04
:10227000310B2A153B0540F33BC18091C10290917F
:10228000C202892B09F434C1C8010E943D18FFEF36
:1022900021EE34E0F15020403040E1F700C0000072
:1022A0000E949B2125C1EA818E2F90E08E309105FE
:1022B00008F01EC1FC01EE59FF4F0C94D22788E0B4
:1022C000EEE0F1E0D40101900D928A95E1F780E211
:1022D000D8011D928A95E9F784E0898388E0F401AA
:1022E000DE011596E1C08CE9898382E08A831B8236
:1022F0001C82FEC08C8190E0982F88272B81820F52
:10230000911D092E000CAA0BBB0B45E0880F991FED
:10231000AA1FBB1F4A95D1F7AC01BD01405E5F4FBC
:102320006F4F7F4F481759076A077B0708F4E0C0D3
:102330008C39E2E09E07A105B10508F0D9C04D39FE
:10234000F2E05F076105710520F04CE952E060E0C2
:1023500070E0481B590BBC0160547E4FC8010E94BD
:102360002927C6C040E250E06FEF70E0C8010E942C
:1023700006288091C1028983EA821B821C8283E045
:102380008D838DE0D6C081E090E09093C40280936D
:10239000C30282E390E09093900180938F010E94AA
:1023A000F42190938E0180938D01A2C0EF28D9F182
:1023B0008091970190919801892F99278295869510
:1023C0008770209191012170F22EF82280918D0169
:1023D00090918E010E94E52185369105F0F0FF2055
:1023E000E1F00E94F42190938E0180938D01809101
:1023F0008F019091900101979093900180938F01AC
:10240000892B89F41092C4021092C30281E090E0FB
:102410009093C2028093C10206C082E390E0909341
:10242000900180938F018091C10289838091C302C2
:102430008A8380918F018B835BC01092C2021092BD
:10244000C10256C040E250E06FEF70E0C8010E9448
:1024500006284EC08B81833061F0843051F18111A8
:1024600047C080E2D8011D928A95E9F788E08A8307
:102470003FC06C818AE0F40111928A95E9F76830D7
:1024800068F4FAE06F9FB001112463567D4F4AE073
:1024900050E0C4010E94322780E001C08FEF8983A1
:1024A0008AE0F401DE01129601900D928A95E1F71F
:1024B0001FC06C818AE0FE013596D40101900D9217
:1024C0008A95E1F7683068F42AE0629FB001112430
:1024D00063567D4F4AE050E0C4010E94742780E0BB
:1024E00001C08FEF89830E948E2502C08FEF898300
:1024F000C8010E943D18D0CBE9BCF9BC09B400FE6C
:10250000FDCF8091D8008F7D8093D8008091E0002E
:1025100082608093E0008091E00081FDFCCF0E940A
:10252000311BC3CB86E290E00E9442271B821C82B3
:102530001D828E83DDCF8091C50187FF11C0809100
:10254000E80082FD05C08091CD018111F8CF11C056
:102550008091E8008B770BC08091CD01882349F0F2
:102560008091E80080FFF8CF8091E8008E7780931B
:10257000E8000895982F973068F59093E900981730
:1025800039F07091EC002091ED005091F00003C003
:10259000242F762F50E021FD02C09F5FECCF3091B9
:1025A000EB003E7F3093EB003091ED003D7F3093A8
:1025B000ED003091EB0031603093EB007093EC0054
:1025C0002093ED005093F0002091EE0027FDE5CF21
:1025D00080E008958F708093E90081E00895209154
:1025E000CB013091CC012617370748F061157105F2
:1025F00039F42091E8002E772093E80001C0B9015A
:10260000FC0120E06115710579F18091CD018823ED
:10261000F1F18530F1F18091E80083FD3CC08091BB
:10262000E80082FD2EC08091E80080FFEBCF209172
:10263000F3008091F20090E0922B6115710551F04A
:102640008830910538F421912093F100615071098F
:102650000196F3CF21E0089709F020E08091E8008F
:102660008E778093E800CECF2111CFCF0AC0809122
:10267000CD01882361F0853061F08091E80083FD11
:102680000AC08091E80082FFF2CF80E0089582E0E6
:10269000089583E0089581E008950895BC0184E0E1
:1026A0000C947121BC0183E00C9471218091CE01C6
:1026B000982F9670963011F4886001C0877F0C9433
:1026C000121B1F93CF93DF93CDB7DEB7AA970FB638
:1026D000F894DEBF0FBECDBFE5ECF1E08DEC91E0EC
:1026E0002091F10021938E179F07D1F78091C601A9
:1026F000833009F463C030F4813071F0823009F422
:102700009DC0B4C08A3009F489C08B3009F46EC012
:10271000893009F0ABC020C08091C501813A09F031
:10272000A5C08091E800877F8093E8008091C9016F
:102730009091CA01892B21F460E282EA91E003C002
:1027400060E080E090E070E00E94EF128091E8008D
:102750008B778093E8008AC08091C501813209F0AF
:1027600085C08091C9019091CA01009719F0029724
:1027700009F07CC08091E800877F8093E800809119
:10278000E80082FD05C08091CD018111F8CF6EC0B7
:102790002091F3008091F20090E0922B029731F4A7
:1027A0008091F100813011F0863021F48091F100A8
:1027B0008093A1018091E8008B7754C08091C5017E
:1027C000813A09F053C08091C9019091CA01892BC7
:1027D00009F04CC08091E800877F8093E8008091E9
:1027E000E80080FFFCCF80910C0137C08091C501CB
:1027F0008132E1F58091C9019091CA01892BB1F52F
:102800008091E800877F8093E8000E949B1280916E
:10281000C70180930C010E94311B28C08091C50123
:10282000813221F58091E800877F8093E8000E9443
:102830009B128091C8018093A00118C08091C501AE
:10284000813AA1F48091E800877F8093E80080912D
:10285000E80080FFFCCF8091A0018093F10080917F
:10286000E8008E778093E8000E949B128091E80038
:1028700083FFEBC18091C5019091C601492F50E0C3
:102880004A30510508F0E1C1FA01E059FF4F0C94BC
:10289000D227803821F0823809F0D7C108C0809152
:1028A000C2019091C301992389F082600FC0809189
:1028B000C9018F70873008F0C8C18093E90080910A
:1028C000EB0085FB882780F91092E9009091E800E1
:1028D000977F9093E8008093F1001092F1007CC103
:1028E000282F2D7F09F0B1C1882319F0823061F0C3
:1028F000ACC18091C701813009F0A7C1933009F0C4
:1029000080E08093C3012EC08091C70181112AC04D
:102910008091C9018F702FEF280F263008F095C1E4
:102920008093E9002091EB0020FF1CC0933021F43C
:102930008091EB00806214C09091EB0090619093C5
:10294000EB0021E030E0A90102C0440F551F8A9539
:10295000E2F74093EA001092EA008091EB00886071
:102960008093EB001092E9008091E800877F8093CC
:10297000E8000E949B1269C1811167C11091C701D3
:102980001F778091E3008078812B8093E300809112
:10299000E800877F8093E8000E949B128091E80006
:1029A00080FFFCCF8091E30080688093E3001111E9
:1029B00002C082E001C083E08093CD0146C180580F
:1029C000823008F042C12091C7013091C8012C3DEE
:1029D00053E0350779F583E08A838AE289834FB72C
:1029E000F894DE01139620E03EE051E2E32FF0E0A0
:1029F00050935700E49120FF03C0E295EF703F5FD2
:102A0000EF708E2F90E0EA3010F0C79601C0C096AC
:102A10008D939D932F5F243149F74FBF8091E8003C
:102A2000877F8093E8006AE270E0CE0101960E9401
:102A3000EF12C0C08091C9019091CA01432F552760
:102A400043305105B1F068F44130510509F40CC12F
:102A50004230510509F0F9C08BE590E0EBE2F5E07A
:102A600057C04132510589F14232510509F43CC049
:102A7000ECC0C901992781309105B9F070F082301E
:102A80009105D9F0039709F0E0C0E8E9F5E0E49199
:102A90008E2F90E0E8E9F5E038C0E8EDF5E0E4914C
:102AA0008E2F90E0E8EDF5E030C0E4ECF5E0E49145
:102AB0008E2F90E0E4ECF5E028C0E6EBF5E0E49141
:102AC0008E2F90E0E6EBF5E020C08330910508F012
:102AD000BCC0880F991FFC01EB5CFE4F0190F08198
:102AE000E02D89E090E014C08330910508F0ADC07E
:102AF000FC01EE0FFF1FE15DFE4F0190F081E02D24
:102B0000DC01A45DBE4F8C9190E0009709F49DC05C
:102B10002091E800277F2093E8002091CB0130919D
:102B2000CC012817390708F4C90140E0009789F162
:102B30002091CD01222309F43DC02530D9F1209107
:102B4000E80023FD37C02091E80022FD2FC020912E
:102B5000E80020FFEBCF4091F3002091F20030E03D
:102B6000342B009759F02830310540F444914093BC
:102B7000F100319601972F5F3F4FF3CF41E02830AE
:102B8000310509F040E02091E8002E772093E8001D
:102B9000CDCF4111CDCF0AC08091CD01882351F016
:102BA000853041F08091E80083FD04C08091E80009
:102BB00082FFF2CF8091E8008B778093E80045C0D8
:102BC000803809F042C08091E800877F8093E80058
:102BD0008091C4018093F1008091E8008E77C7CE88
:102BE000811133C08091C7019091C8019927029744
:102BF00064F58091E800877F8093E8001091C70119
:102C00001093C4010E949B12111106C08091E30031
:102C100087FD02C081E001C084E08093CD0142E0E5
:102C200061EC81E00E94BA1242E261EC84E00E9411
:102C3000BA1242E261EC82E00E94BA1242E260EC17
:102C400083E00E94BA128091CD018091E80083FF59
:102C500010C08091E800877F8093E8008091EB00AE
:102C600080628093EB0005C082E190E0E6E8F5E049
:102C70004FCFAA960FB6F894DEBF0FBECDBFDF913F
:102C8000CF911F9108951F920F920FB60F921124AA
:102C90002F933F934F935F936F937F938F939F9364
:102CA000AF93BF93CF93DF93EF93FF93C091E9006E
:102CB000CF708091EC00D82FD17080FDD0E81092B9
:102CC000E9008091F000877F8093F00078940E9463
:102CD00061131092E9008091F00088608093F00009
:102CE000CD2BCF70C093E900FF91EF91DF91CF9191
:102CF000BF91AF919F918F917F916F915F914F9114
:102D00003F912F910F900FBE0F901F901895E8EDF7
:102D1000F0E080818E7F80831092E2001092DA00D2
:102D20001092E100A0EEB0E08C9181608C938081E4
:102D30008F77808319BCA7EDB0E08C918E7F8C9348
:102D400080818F7E808310929F010895CF92DF92C1
:102D5000EF92FF920F931F93CF93DF93C8EDD0E0D4
:102D600088818F7E8883E7EDF0E0808181608083B9
:102D700084E082BF81E080939F0188818E7F888379
:102D800002EE10E0F80110821092DA0081EEC82EF7
:102D9000D12CF601108288818F77888388818068A2
:102DA000888388818F7D888319BC1092CD01109211
:102DB000C4011092C3011092C20190EEE92EF12CD1
:102DC000F70180818B7F808388818160888342E0E6
:102DD00060E080E00E94BA12F60180818E7F8083DD
:102DE000F801808181608083808188608083F70121
:102DF00080818E7F8083888180618883DF91CF91FD
:102E00001F910F91FF90EF90DF90CF9008951F9248
:102E10000F920FB60F9211242F933F934F935F930E
:102E20006F937F938F939F93AF93BF93EF93FF9392
:102E30008091E10082FF09C08091E20082FF05C01D
:102E40008091E1008B7F8093E1008091DA0080FF28
:102E50002AC08091D80080FF26C08091DA008E7F42
:102E60008093DA008091D90080FF18C080E189BD8D
:102E700082E189BD09B400FEFDCF81E08093CD01E0
:102E800080919F0181110FC00E9487160E94A61693
:102E90008091E20084608093E20005C019BC10922A
:102EA000CD0110929F018091E10080FF17C08091B9
:102EB000E20080FF13C08091E2008E7F8093E200E9
:102EC0008091E20080618093E2008091D80080626E
:102ED0008093D80019BC85E08093CD018091E100FA
:102EE00084FF30C08091E20084FF2CC080E189BD66
:102EF00082E189BD09B400FEFDCF8091D8008F7DAD
:102F00008093D8008091E1008F7E8093E1008091D2
:102F1000E2008F7E8093E2008091E20081608093E6
:102F2000E2008091C401882311F084E007C0809101
:102F3000E30087FD02C081E001C083E08093CD0102
:102F40008091CD018091E10083FF27C08091E20054
:102F500083FF23C08091E100877F8093E10082E0BE
:102F60008093CD011092C4018091E1008E7F809307
:102F7000E1008091E2008E7F8093E2008091E20088
:102F800080618093E20042E060E080E00E94BA123B
:102F90008091F00088608093F000FF91EF91BF91E5
:102FA000AF919F918F917F916F915F914F913F91E1
:102FB0002F910F900FBE0F901F9018952091E40055
:102FC0003091E50095E64091EC00842F817040FF40
:102FD00023C08091E80080FD1DC08091CD01882331
:102FE00099F0853099F08091EB0085FD11C04091FA
:102FF000E4005091E5002417350729F3915011F0B2
:103000009A01E1CF84E0089582E0089583E0089575
:1030100081E0089580E008954091E80042FFDDCF0F
:103020000895EF92FF920F931F93CF93DF937C014C
:103030008B010E94DE17811119C0E70101151105EE
:10304000A1F08091E80085FD0AC08091E8008E77AC
:103050008093E8000E94DE17882381F307C08991DE
:103060008093F10001501109E9CF80E0DF91CF9109
:103070001F910F91FF90EF900895CF932091CD0174
:103080002430F9F4C091E900CF703091EC00232F87
:10309000217030FD20E8C22B22E02093E90020912E
:1030A000E80020FF0BC040E050E060E270E00E94CA
:1030B00011188091E8008E778093E800CF70C0935C
:1030C000E900CF91089580E090E00E949C2280E08A
:1030D00090E00E94862210926802109267020C947F
:1030E0000620CF92DF92FF920F931F93CF93DF932F
:1030F0006C010091CE0180916D02082BC7E0D0E0F9
:1031000010E0C8010C2E02C0959587950A94E2F74D
:1031100080FD04C02197A8F7F12C09C0FC2EB60150
:103120008C2F0E947B250E94E51D019799F38F2D1E
:10313000DF91CF911F910F91FF90DF90CF90089575
:10314000CF93DF93EC010E947118BE010E947B2592
:103150000E94E51DDF91CF910895FC018681978142
:10316000009719F00E94E51D04C0808191810E94A2
:10317000A018292F2F70E92FE295EF704E2F50E005
:10318000FA013297EE30F105B8F4E658FF4F0C948F
:10319000D227803F99F018F4883E70F40FC0843F26
:1031A00059F40CC0883E50F0813F31F407C0822FA3
:1031B000869586958695089580E0089581E0089526
:1031C0009F92AF92BF92CF92DF92EF92FF920F93B6
:1031D0001F93CF93DF93CDB7DEB765970FB6F89403
:1031E000DEBF0FBECDBF8C0185E0F801DE01519638
:1031F00001900D928A95E1F7F801E2809091190211
:1032000060911A0240911C0250911D024115510516
:1032100031F06F3F31F481E09F3F19F403C081E04A
:1032200001C080E0F82FF1709F2E80FD4EC1F801A3
:1032300030812181C380D48079E1A72E72E0B72E3E
:10324000F0901B02F601E41BF50BFF2009F4EFC020
:1032500080911E02E83CF10508F0AAC0482F407F8B
:1032600009F05AC062131BC0931319C060911F026A
:1032700070912002F801468157816417750779F42F
:10328000FE2CE1100CC08F70806180931E02C5017E
:103290000E94B60780911E02F801858353C1CD2894
:1032A00031F02F3F31F481E03F3F19F403C081E05A
:1032B00001C080E080FD03C081E08E2502C080E077
:1032C00090E0F82FF170FF2E80FF1CC08091620209
:1032D00040912102841709F413C190E0FC0153E0EE
:1032E000EE0FFF1F5A95E1F7EE5DFD4F518125135B
:1032F00006C05081531303C05281E51203C00196EA
:103300008770E8CFFE2CEE2009F41CC180911E02CC
:10331000816080931E0258C062130FC093130DC0CA
:1033200040911F0250912002F801268137814217F7
:10333000530719F4EE2009F4A7C0C8010E94AD1884
:10334000882381F1EE2071F120911E02822F829557
:103350008F7090E00297A4F08091190290911A0268
:103360009A8789871B86DD86CC862E8780911F02EF
:1033700090912002988B8F87CE0109960E94B60704
:1033800088E0F801A9E1B2E001900D928A95E1F799
:103390000E94C3200AC06217C9F0C8010E94AD187C
:1033A000811127C0C8010E94B607FF24F394CAC048
:1033B000482F407F81F789E192E00E94B60788E0BC
:1033C000F50111928A95E9F7F12CBCC09313E5CF72
:1033D00040911F0250912002F80126813781421747
:1033E0005307D9F6E110D9CF8583C8010E94B607EB
:1033F00066C0EE20B9F220911E02822F82958F7056
:1034000090E002970CF4BCCF8091190290911A02BF
:103410009A8389831B82DD82CC822E8380911F0256
:103420009091200298878F83CE010196A7CFE83C28
:10343000F10508F044C0FE2CEE2009F4B3CF62136E
:1034400030C093132EC020911F0230912002F8014A
:10345000868197812817390721F590911E0290FDEA
:1034600017C0892F82958F70282F30E021153105E4
:1034700079F095832F30310541F08F5F982F929529
:10348000907F85818F70892B8583C8010E94B60744
:1034900088E0F801A9E1B2E001900D928A95E1F788
:1034A00051C0C8010E94AD1881116ACF80911E02DF
:1034B000816080931E02C8010E94B60743C088E065
:1034C000F50111928A95E9F73DC0EE2009F46ACF23
:1034D000C8010E94AD18F82E882309F463CF88E054
:1034E000F801A9E1B2E001900D928A95E1F780918F
:1034F000190290911A020E94A0180E94C32022C0B3
:10350000398B2A8B89899A890E94A018292F2295A4
:103510002F70223028F49F7039F0811105C00BC044
:10352000243028F49F7049F4805E883020F0C80170
:103530000E94B6079F2CF92C05C0F8019581907F59
:1035400099F7F9CF8F2D65960FB6F894DEBF0FBEB1
:10355000CDBFDF91CF911F910F91FF90EF90DF9042
:10356000CF90BF90AF909F9008959E3F61F12FE064
:10357000929F800D1124682F669566956695982F09
:10358000977083E0689FB001112440E050E080E034
:10359000FB01E40FF51FE153FE4F208130E0092EBF
:1035A00002C0369527950A94E2F721703327042E3E
:1035B00001C0220F0A94EAF7822B4F5F5F4F43301E
:1035C000510531F7089580E008959E3F51F12FE0B5
:1035D000929F800D1124E82FE695E695E695877079
:1035E00051E001C0550F8A95EAF783E0E89FF001AA
:1035F0001124E153FE4F20E030E070E04081CB0128
:10360000022E02C0969587950A94E2F78170819503
:1036100084278523842781932F5F3F4F23303105F3
:1036200069F708958093CE010C94631821E030E08F
:1036300001C0220F8A95EAF720958091CE0182235E
:103640000C94121B21E030E001C0220F8A95EAF7AA
:103650008091CE01822B0C94121B80936D020C94EE
:1036600063181092690280910C01882331F08091D7
:103670007B0387FF02C08EE101C086E0EBEFF1E043
:10368000DF011D928A95E9F70C946318CF93DF93BD
:10369000CDB7DEB760970FB6F894DEBF0FBECDBFD3
:1036A00029873A874B875C876D877E878F87988BC2
:1036B000CE0109960E94E018811151C088E0FE01F8
:1036C0003996DE01119601900D928A95E1F7798580
:1036D0006A854C855D854115510531F06F3F31F4A8
:1036E00081E07F3F19F403C081E001C080E080FDEC
:1036F00036C0A0912102B0E0CD01019687709927D4
:103700002091620230E08217930781F179836A8306
:103710005D834C8393E0AA0FBB1F9A95E1F7AE5DE2
:10372000BD4F98E0FE01319601900D929A95E1F718
:10373000809321020E94B92012C028E0829FC0011C
:1037400011248E5D9D4F0E94E0188823E1F0809146
:10375000620290E0019687709927809362028091BF
:103760006202909121028913E8CF0DC00E94311BA3
:103770001092210210926202E9E1F2E088E0DF019A
:103780001D928A95E9F760960FB6F894DEBF0FBEDA
:10379000CDBFDF91CF910895882321F00E94FF1FB4
:1037A0000C9406200895882339F090916902892BA2
:1037B000809369020C9406200895882339F1682FBC
:1037C0008CEF860F813A28F489EF91E00E9429223C
:1037D0000CC080E2860F883050F4677081E001C031
:1037E000880F6A95EAF70E94FF1F0C9406208BE56C
:1037F000860F833020F480E090E00C949C22685A7D
:10380000673120F480E090E00C9486220895CF93F5
:10381000882309F46DC09CEF980F913AC8F5C82F22
:1038200080910C018823E1F080917B0387FF18C011
:10383000EC2FE695E695E695F0E0E750FE4F8281A5
:10384000282F30E04C2F477081E090E002C0880FB5
:10385000991F4A95E2F782239323892B61F412C0C2
:10386000EBEFF1E081E092E02191C21721F08E1799
:103870009F07D1F707C06C2F89EF91E00E942922A2
:103880000E9406206C2F89EF91E00E94512213C004
:1038900090E2980F983090F4877021E030E0A90111
:1038A00002C0440F551F8A95E2F7CA019091690240
:1038B000892B80936902CF910C940620EBE5E80FE9
:1038C000E33040F4F0E0E55CFE4F808190E0CF9182
:1038D0000C949C22885A873158F4E82FF0E0EE0FC0
:1038E000FF1FE25CFE4F80819181CF910C94862274
:1038F000CF9108951F93CF93DF93182F893319F039
:10390000C0E0D0E002C0C0E5D0E0812F0E94071CDB
:10391000209741F08FE99FE00197F1F700C0000088
:103920002197F6CF812FDF91CF911F910C94DD1B52
:1039300080E0089590917B0392FF0DC0282F28719D
:10394000283019F4877F846006C0282F2471243022
:1039500011F48B7F886093FF0DC0282F28712831C8
:1039600019F4877E846106C0282F2471243111F454
:103970008B7E886120917C0320FF0DC0382F387129
:10398000383019F4877F816006C0382F31713130AB
:1039900011F48E7F886021FF0DC0282F28712831F7
:1039A00019F4877E816106C0282F2171213111F41D
:1039B0008E7E886194FD877E0895F894E82FE295C5
:1039C000EF70F0E031A1282F2F7081E090E001C06E
:1039D000880F2A95EAF7982F9095932391A392A1A7
:1039E000892B82A3789408958F929F92AF92BF9271
:1039F000CF92DF92EF92FF920F931F93CF93DF93BB
:103A0000CDB7DEB72E970FB6F894DEBF0FBECDBF91
:103A1000AE014F5F5F4F7A018EE0FA0111928A95F5
:103A2000E9F706E111E06A01AA24A394B12CF80198
:103A300080818F3F09F447C0F894E82FE295EF703A
:103A4000F0E021A18F70A50102C0440F551F8A9597
:103A5000E2F7CA01922F982B91A392A18095892316
:103A600082A3789400C0EDE1F1E021E030E0812C08
:103A7000912C41914F3F89F0A42FA295AF70B0E0F7
:103A800090968C9190E04F7002C0959587954A95DD
:103A9000E2F780FD02C0C90102C080E090E0882A00
:103AA000992A220F331F51E0EC32F50711F7F80184
:103AB00080818F3F11F00E94DD1CF0EAFA95F1F74A
:103AC000F601918280820F5F1F4FF2E0CF0ED11C72
:103AD00041E00D31140709F0AACF4EE050E0B701E4
:103AE0008FE691E00E94F92711E0009709F410E0B9
:103AF000892B89F08EE0F701AFE6B1E001900D92DD
:103B00008A95E1F781E0809370020E94F4219093FE
:103B10006F0280936E02809170028823B1F08091D1
:103B20006E0290916F020E94E521059770F0EFE61A
:103B3000F1E0A1E9B1E0819191918D939D9351E0E4
:103B4000ED37F507C1F71092700280910D018823BF
:103B500041F180916B0390916C03009711F10E94E9
:103B6000E5212091C5023091C60228173907C8F413
:103B70009091690380916A03981759F00E94DD23A0
:103B80001092C6021092C50210926C0310926B0341
:103B900008C00E945F2310926C0310926B030E9476
:103BA000BE23812F2E960FB6F894DEBF0FBECDBF79
:103BB000DF91CF911F910F91FF90EF90DF90CF9009
:103BC000BF90AF909F908F900895CF93DF938238EE
:103BD000910569F1B0F48133910509F46FC048F49F
:103BE0008932910509F465C08A32910509F46BC0E8
:103BF0008AC08533910509F457C089339105B9F01E
:103C000082C0833E910571F138F4803E9105B1F098
:103C1000823E910511F177C0863E9105B9F1873E4C
:103C20009105C9F1843E910509F06DC024C0209131
:103C30007B0320FD53C021FD51C065C080917B03F3
:103C400080FD46C080917C0380FF48C080917B034B
:103C500084FD3FC183EE90E03EC180917B0382FFF3
:103C60003AC0F4CF80917B0382FD35C080917C0304
:103C700080FD34C0EBCF80917C0381FF35C0809103
:103C80007B0384FD26C187EE90E025C180917B03F4
:103C900083FF27C0F4CF80917B0383FD22C08091F6
:103CA0007C0381FD21C0EBCF80917B0385FD1FC08C
:103CB00021C080917B0385FD1DC019C080917B03CD
:103CC00086FD1BC01DC080917B0386FD19C015C0F9
:103CD00089E390E000C182EE90E0FDC080EE90E0CC
:103CE000FAC086EE90E0F7C084EE90E0F4C089E27E
:103CF00090E0F1C085E390E0EEC08AE290E0EBC096
:103D000081E390E0E8C0811532E5930708F069C0CF
:103D1000811541E5940728F0982F8827816F906AD4
:103D2000DAC0883E910568F5803E910508F0D3C061
:103D3000883A9105B8F4853A910548F0855AE82FFC
:103D4000F0E0E55CFE4F808190E09064C4C081307B
:103D5000910509F4BBC008F4BCC08430910508F497
:103D6000B8C0B9C08F3B910508F0B3C0885AE82F9E
:103D7000F0E0EE0FFF1FE25CFE4F808191819464C2
:103D8000AAC0811520E59207F0F09C0174E03695F9
:103D900027957A95E1F7922F9370482F437021E091
:103DA00030E002C0220F331F4A95E2F73C68392BFE
:103DB0008F70982F9695969540E2949FC00111249C
:103DC000822B932B88C0811530E4930718F09F70E5
:103DD000906A81C09C013A9521153F4108F47BC04F
:103DE00078C0EC01C11586E5D807E8F5C11525E5D1
:103DF000D20748F08C2F0E949A1C8F7190E0982F68
:103E00008827906268C0C11534E5D30728F09C2F3D
:103E10008827846F906A5FC0AE01437055272C2FAE
:103E200026952695C115D34578F481E090E002C02F
:103E3000880F991F4A95E2F740E2249F90011124D0
:103E4000822B932B9C6847C081E090E002C0880FD2
:103E5000991F4A95E2F740E2249F90011124822B9A
:103E6000932B9A6838C0C1152AE5D207F8F4C1151A
:103E700039E5D30790F08C2F8F700E949A1C94E044
:103E8000D695C7959A95E1F7CF70D0E0DC2FCC2777
:103E9000D0699E01282BC9011EC0C11548E5D40771
:103EA000C0F09C2F8827806F906A15C0CE01905675
:103EB0008115904270F48D2F8F710E949A1C282FCB
:103EC0002F71CE0199279062922B05C081E090E07E
:103ED00002C080E090E0DF91CF910895CF9384E01D
:103EE00090E00E944227C82F82E290E00E94422781
:103EF0002C2F30E0A901582BCA01CF91089580E002
:103F000090E00E944A278A3E9E4F11F40C9414269A
:103F100080E008956AEE7EEF80E090E00E946E27D8
:103F200060E082E090E00E94502760E083E090E053
:103F30000E94502710926D0260E084E090E00E94A1
:103F4000502760E082E290E00E94502760E085E028
:103F500090E00E94502760E086E090E00E945027A9
:103F60006FEF87E090E00E94502740E050E0BA01F8
:103F700088E090E00E94622760E08DE090E00E947F
:103F8000502740E050E0BA0188E190E00E946227AB
:103F900060E087E190E00E94502740E050E0BA01E5
:103FA0008CE190E00E94622760E070E080E290E0A7
:103FB0000E946E2740E050E0BA0188E190E00E9444
:103FC000622780E00E94E7250E94052640E050E03D
:103FD000BA018FE090E00E94622740E050E0BA0111
:103FE00083E190E00C94622780916C02882331F089
:103FF00010926C0210926B0210926A0208958095E2
:1040000090916902892380936902089590916902D1
:1040100080916802892B90916702892B8093F90126
:1040200080916C02882361F10E94F42120916A0240
:1040300030916B02821B930B8838934110F00E94E1
:10404000F41F9091F90180916C02892B8093F90102
:1040500080910C01882331F080917B0387FF02C09F
:104060008EE101C086E0EBEFF1E090E0815028F0B6
:1040700021912223D9F39F5FF9CF91110E94F41F60
:10408000E0917203F09173033097A9F080910C01D5
:10409000882359F080917B0387FF07C08091F90145
:1040A0008093FA0186E08093F9010280F381E02D8C
:1040B00089EF91E0099408951092660210926502CA
:1040C0001092640208952091660280958223809365
:1040D0006602982F977099F430E0482F082E000C54
:1040E000550B2417350759F090917C0392FD07C0BA
:1040F0008595859585950E94161B0C945C200895E6
:10410000CF93C0917C03C2FB992790F9981799F03F
:1041100080FBC2F9C0937C0360917B0384E090E054
:104120000E9450276C2F82E290E00E94502782E08C
:10413000CF910C946320CF91089590917C0392FDD0
:1041400010C098E0899F90011124262B20936602CD
:104150000E94221B0E94F4219093650280936402C6
:1041600008950C94221B80916302811110926302C6
:1041700008958091620290912102891719F08F5F52
:104180008770FBCF08951F93CF93DF9380911E021A
:1041900082958F7009F05CC080911B02882309F41E
:1041A00057C08091620210912102609119027091B2
:1041B0001A02C0911C02D0911D0291E06F3F09F0DC
:1041C00090E0292F811709F443C0209721F07F3F09
:1041D00021F030E003C031E001C0322F90E030FD2B
:1041E00034C0FC0133E0EE0FFF1F3A95E1F7DF0129
:1041F000AE5DBD4F11963C911197371326C03C918F
:10420000361323C012963C91129731111EC013969B
:104210004D915C9114974C1B5D0B483C5105A8F4E3
:1042200080911E028F70806180931E02E95DFD4FB8
:1042300080818F708061808389E192E00E94B6075F
:10424000DF91CF911F910C94B92001968770BACF5E
:10425000DF91CF911F91089508958091A101089554
:10426000CF93DF9320910C01222339F020917B031F
:1042700027FF03C060E224E002C068E021E0209351
:10428000E9002FEF3091E800215035FD06C035EDF3
:104290003A95F1F700002111F5CF2091E80025FFB4
:1042A0001DC0EC0180910C01811105C040E050E07F
:1042B00068E070E003C070E040E050E0CE010E9492
:1042C00011188091E8008E778093E80080E2FE016B
:1042D000A2EAB1E001900D928A95E1F7DF91CF91CA
:1042E000089580937D0370937F0360937E03809194
:1042F000CD018430F9F48093E9008FEF9091E800CC
:10430000815095FD06C095ED9A95F1F70000811159
:10431000F5CF8091E80085FF0DC040E050E063E0FC
:1043200070E08DE793E00E9411188091E8008E778D
:104330008093E800089581E08093E00080E280931C
:10434000D8001092C9008FE19EE40197F1F700C0F8
:10435000000087E090EBDC0180938103909382035F
:10436000A0938303B09384039CE088E10FB6F89494
:10437000A895809360000FBE90936000FFCF789463
:104380001F920F920FB60F9211248F939F93AF93AA
:10439000BF938091770390917803A0917903B091B6
:1043A0007A030196A11DB11D809377039093780342
:1043B000A0937903B0937A03BF91AF919F918F91AE
:1043C0000F900FBE0F901F9018959C014FB7F89457
:1043D0008091770390917803A0917903B0917A034B
:1043E0004FBF821B930B08952FB7F89480917703EA
:1043F00090917803A0917903B0917A032FBF08952B
:104400001F920F920FB60F9211248F939F93AF9329
:10441000BF9380917603811113C0809177039091AF
:104420007803A0917903B0917A034196A11DB11D43
:104430008093770390937803A0937903B0937A03E2
:10444000BF91AF919F918F910F900FBE0F901F90D2
:10445000189520910C012223C9F020917B0327FF9E
:1044600015C0262F2695269526952E31C8F4FC01D9
:10447000E20FF11D677081E090E001C0880F6A953E
:10448000EAF780959281892382830895FC0106963C
:104490002281621301C012823196E817F907C1F731
:1044A000089520910C012223C1F020917B0327FF66
:1044B00014C0262F2695269526952E3130F5FC0121
:1044C000E20FF11D677081E090E001C0880F6A95EE
:1044D000EAF79281892B82830895FC0132962FEFAF
:1044E00030E04191641789F02F3F19F4411101C068
:1044F000232F3F5F3630A9F72F3F39F0FC01E20F41
:10450000F11D27FDFA9562830895089520917403A3
:10451000309175032817390771F0909375038093D4
:104520007403E0917203F0917303309721F00084DB
:10453000F185E02D09940895209170033091710365
:104540002817390771F09093710380937003E091FD
:104550007203F0917303309721F00680F781E02D0C
:1045600009940895E0917203F0917303309721F05C
:104570000190F081E02D099480E008950F931F933E
:10458000CF93DF93C42FD22FFC0182818823C9F0FF
:1045900040936F030E94F42190936E0380936D0308
:1045A00080E28C0F883008F057C0C77081E001C0EE
:1045B000880FCA95EAF7DF91CF911F910F910C9464
:1045C000D31B80916F03481330C080916D0390918D
:1045D0006E030E94E521883C910538F510E21D0F1D
:1045E000CD17B9F080E28C0F883040F4C77081E0BD
:1045F00001C0880FCA95EAF70E94CC1B183028F535
:1046000081E09D2F977001C0880F9A95EAF70E946C
:10461000D31B802F0E947A1C1830F0F4D77081E0F1
:1046200001C0880FDA95EAF70AC080E28C0F883063
:1046300098F4C77081E001C0880FCA95EAF7DF914E
:10464000CF911F910F910C94CC1B802FDF91CF91B4
:104650001F910F910C947A1CDF91CF911F910F91B4
:104660000895BC014091690380916A03942F9817C3
:1046700029F1292F30E0F901EE0FFF1FEF59FC4F10
:104680000190F081E02DE617F70799F487E0869F07
:10469000F001879FF00D1124E75DFC4F81E08483DA
:1046A00094130CC02F5F3F4F23703327209369036F
:1046B00008952F5F3F4F922F9370D9CF08950F9396
:1046C0001F93CF93DF938091C802882309F451C0D0
:1046D000C091C7021CE08091C802C81708F045C00D
:1046E00001E00C0F0093C702D0E01C9FF0011D9F5A
:1046F000F00D1124E753FD4F908181812381348196
:10470000232B31F08F3F31F481E09F3F19F403C038
:1047100081E001C080E080FD26C01C9FD0011D9F6C
:10472000B00D1124A753BD4F16968D919C911797EC
:10473000892B31F418968D919C911997019651F41B
:104740002081318142815381648175818681978185
:104750000E94461B1C9FF0011D9FF00D1124E75382
:10476000FD4F14821382C02FB6CF1092C802109250
:10477000C702DF91CF911F910F9108951092C60249
:104780001092C502E9E2F3E08581811102C0148232
:104790001682379683E0E136F807B1F70895109254
:1047A0006C0310926B0310920D0180916A03809349
:1047B00069030E94BE230C945F233F924F925F9245
:1047C0006F927F928F929F92AF92BF92CF92DF9221
:1047D000EF92FF920F931F93CF93DF93C0916903E2
:1047E00097E0892E01E010E02CE0322E3EEF932E70
:1047F0004424439480916A03C81709F478C0D0E038
:10480000FE01EE0FFF1FEF59FC4F80819181889EC2
:10481000D001899EB00D1124A75DBC4F14962C9138
:104820001497211161C05090C802E9ECF2E020E039
:1048300030E0712C5D01251508F054C0E284F3844A
:10484000D501CD90DC906FEF7FEF612C462D50E0CD
:10485000DA01AA0FBB1FAC0DBD1D0D90BC91A02DA0
:10486000109731F0EA16FB0609F4BA016394EECF13
:104870006F3FBFEF7B0791F1D80102C0AA0FBB1FAA
:104880006A95E2F77A2AB80102C0660F771F6A9428
:10489000E2F7AB0141505109672D70E04617570709
:1048A000D9F4329EF001339EF00D1124E753FD4FF1
:1048B000889ED001899EB00D1124A75DBC4F129631
:1048C0002D913C9113973783268390829182918713
:1048D000808715964C9206C0148213822F5F3F4F3B
:1048E0003C96A9CF0E9431232196C37083CF0E94AA
:1048F0005F23DF91CF911F910F91FF90EF90DF9099
:10490000CF90BF90AF909F908F907F906F905F906F
:104910004F903F900C94BE23CF93DF93CDEED2E027
:1049200060E0CE010E9450272196C11584E0D8078F
:10493000B9F7DF91CF9108950F931F93CF93DF9332
:10494000833058F5673048F54F3038F521159CE530
:10495000390731F4E091C102F091C202EF2BE9F086
:104960008901C42FD0E0CC0FDD1F9EE1699FC00DEF
:10497000D11D112492ED899FC00DD11D1124612FED
:10498000CE0187960E945027602FCE018896DF9136
:10499000CF911F910F910C945027DF91CF911F91D0
:1049A0000F9108956F927F928F929F92AF92BF92D4
:1049B000CF92DF92EF92FF920F931F93CF93DF93EB
:1049C000CDB7DEB72A970FB6F894DEBF0FBECDBFC6
:1049D000A090C102B090C20281E090E09093C20228
:1049E0008093C102612CC12CD12C712CE12CF12CB3
:1049F00000E010E046018E0C9F1CF801EE0FFF1F37
:104A0000E80DF91DE452FA4F25913491402F672D9E
:104A1000862D0E949C240F5F1F4F0F30110569F7F0
:104A20008EE1E80EF11C739497E07912E1CFE2ED8C
:104A3000CE0ED11C6394F3E06F12D7CFCE01019656
:104A40007C018AE0F70111928A95E9F70DE912E0FD
:104A50004AE050E0B801C7010E947427065F1F4F6B
:104A60000D3EF2E01F07A1F7B092C202A092C10270
:104A70002A960FB6F894DEBF0FBECDBFDF91CF915F
:104A80001F910F91FF90EF90DF90CF90BF90AF906C
:104A90009F908F907F906F9008950F931F93CF9367
:104AA000DF93833008F56730F8F44F30E8F4C42F13
:104AB000D0E0CC0FDD1F2EE1629FC00DD11D11246F
:104AC00032ED839FC00DD11D1124CE0187960E9427
:104AD000422790E0182F0027CE0188960E94422797
:104AE0009801282BC90102C080E090E0DF91CF91AE
:104AF0001F910F910895462F2091C3023091C40257
:104B0000232B49F4833038F4773028F46F3018F4CD
:104B1000672F0C944D2580E090E00895CF92DF92AE
:104B2000EF92FF920F931F93CF93DF93CDB7DEB732
:104B30002A970FB6F894DEBF0FBECDBF80E5E1E740
:104B4000F2E0DF011D928A95E9F788E3E9E2F3E0FC
:104B5000DF011D928A95E9F781E7C82E82E0D82E01
:104B60007F010DE912E0F701D182C0824AE050E0F6
:104B7000B801CE0101960E94322788E0FE013196ED
:104B8000D60101900D928A95E1F789859A85D70122
:104B900013969C938E931297BAE0CB0ED11CE7E04C
:104BA000EE0EF11C065F1F4F0D3EF2E01F07D9F617
:104BB0002A960FB6F894DEBF0FBECDBFDF91CF911E
:104BC0001F910F91FF90EF90DF90CF900895CF93BA
:104BD000C82F811102C06FEF01C06CE783E290E043
:104BE0000E945027C11102C06FEF01C06DED84E239
:104BF00090E00E945027C11102C06FEF01C062E235
:104C000085E290E0CF910C94502780E00E94E72548
:104C100060E086E290E00E9450270E94D2240E9429
:104C20008C2481E00C94E72583E290E00E944227E7
:104C30008C3781F484E290E00E9442278D3D51F44C
:104C400085E290E00E94422791E0823209F090E0F4
:104C5000892F01C080E0817008958F929F92AF925A
:104C6000BF92CF92DF92EF92FF920F931F93CF9359
:104C7000DF93863048F4811108C0909190009F77AF
:104C800090939000469806C085E0909190009068BF
:104C900090939000A0919600B0919700282F30E05B
:104CA0000E94DF2725E030E040E050E00E94B0277E
:104CB0000027122F232F342F012F122F232F3327BA
:104CC00080919600909197006CE070E00E949C2784
:104CD0006017710730F0C80169E070E00E949C27FE
:104CE0005EC08091960090919700E0909600F090C1
:104CF0009700E0919600F0919700C6E0D0E0BE01E9
:104D00000E949C27060F171F211D311D48015901C4
:104D100085E0880C991CAA1CBB1C8A95D1F7C70199
:104D2000BE010E949C276F01E12CF12CA701960186
:104D3000260F371F411D511DC501B4010E94B02728
:104D400069017A01E0919600F0919700CA01B901DA
:104D50000E948C279B01AC01DF010E94EE279B0182
:104D6000AC01C701B6010E948C27DC01CB012FE00A
:104D7000B695A795979587952A95D1F700919600B6
:104D80001091970020E030E0081719072A073B0729
:104D900028F46091960070919700CB01BC0170934C
:104DA000990060939800DF91CF911F910F91FF9030
:104DB000EF90DF90CF90BF90AF909F908F9008952D
:104DC000682F86E090E00C945027863008F085E04C
:104DD000909180039770282F220F220F220F922B81
:104DE00090938003987F21E009F420E09091800364
:104DF00020FB90F9909380030C942D260E947F1F36
:104E000081110AC00E948A1F809180038470896288
:104E1000809380030E94E02686E090E00E94422773
:104E200080938003282F26952695269530E02630FE
:104E3000310524F08770886280938003809180031D
:104E400080FF04C086958695869501C080E00C940D
:104E50002D26FB01DC0102C005900D92415050400F
:104E6000D8F70895DC01CB01FC01F999FECF06C00B
:104E7000F2BDE1BDF89A319600B40D924150504018
:104E8000B8F70895F999FECF92BD81BDF89A992798
:104E900080B50895A8E1B0E042E050E00C943427DA
:104EA000262FF999FECF92BD81BDF89A019700B4E3
:104EB000021639F01FBA20BD0FB6F894FA9AF99A83
:104EC0000FBE08950396272F0E9451270E94502756
:104ED000252F0E945127242F0C9451270196272F0C
:104EE0000E9451270C945027DC01CB0103C02D9167
:104EF0000E947F2741505040D0F70895262FF999FE
:104F0000FECF1FBA92BD81BD20BD0FB6F894FA9AAC
:104F1000F99A0FBE01960895DB018F939F930E942B
:104F2000EE27BF91AF91A29F800D911DA39F900D81
:104F3000B29F900D11240895AA1BBB1B51E107C01D
:104F4000AA1FBB1FA617B70710F0A61BB70B881F19
:104F5000991F5A95A9F780959095BC01CD010895A8
:104F6000A1E21A2EAA1BBB1BFD010DC0AA1FBB1F6D
:104F7000EE1FFF1FA217B307E407F50720F0A21BDF
:104F8000B30BE40BF50B661F771F881F991F1A944C
:104F900069F760957095809590959B01AC01BD0176
:104FA000CF010895EE0FFF1F0590F491E02D0994B5
:104FB0006927962769277827872778270895A29F4A
:104FC000B001B39FC001A39F700D811D1124911DDD
:104FD000B29F700D811D1124911D08950E94DF273D
:104FE000A59F900DB49F900DA49F800D911D11243D
:104FF0000895FB01DC0104C08D910190801921F41A
:1050000041505040C8F7881B990B0895DC0101C03E
:0E5010006D9341505040E0F70895F894FFCFA3
:10501E002D2130212C2152134E134D1301018F5689
:10502E006CB98740819090F491929395F7F0F1C608
:10503E0067F63694313037353497963340226DEB20
:10504E0004C9045C043D0556057605818283E200A1
:10505E00E900EA00B500B600B700CD008301CC0030
:10506E008A019201940121022302240225022602C2
:0C507E0027022A02B300B4006F0070008B
:00000001FF
